:100000000C94B6000C94D3000C94D3000C94D30041
:100010000C94D3000C94D3000C94D3000C94D30014
:100020000C94D3000C94D3000C94D3000C94D30004
:100030000C94D3000C94D3000C94F6010C94D300D0
:100040000C943A020C94D3000C94D3000C94D3007B
:100050000C94D3000C94D3000C94D3000C94D300D4
:100060000C94D3000C94D3000C94D3000C94D300C4
:100070000C94D3000C94D3000C94D3000C94D300B4
:100080000C94D3000C94D3000C94D3000C94D300A4
:100090000C94D3000C94D3000C94D3000C94D30094
:1000A0000C94D3000C94D3000C94D3000C94D30084
:1000B0000C94D3000C94D3000C94D3000C94D30074
:1000C0000C94D3000C94D3000C94D3000C94D30064
:1000D0000C94D3000C94D3000C94D3000C94D30054
:1000E0000C94D3000C94D3000C94D3000C94D30044
:1000F0000C94D3000C94D3000C94D3000C94D30034
:100100000C94D3000C94D3000C94D3000C94D30023
:100110000C94D3000C94D3000C94D3000C94D30013
:100120000C94D3000C94D3000C94D3000C94D30003
:100130000C94D3000C94D3000C94D3000C94D300F3
:100140000C94D3000C94D3000C94D3000C94D300E3
:100150000C94D3000C94D3000C94D3000C94D300D3
:100160000C94D3000C94D3000C94D30011241FBE24
:10017000CFEFD7E2DEBFCDBF10E2A0E0B0E2E4E017
:10018000F9E002C005900D92A030B107D9F710E256
:10019000A0E0B0E201C01D92AC30B107E1F70E94CF
:1001A00011010C9480040C940000E0E0F2E080E186
:1001B000828381E0848314861586808181608083B8
:1001C0000E9402010895880F880F880FE0E0F2E096
:1001D00081A380A1846080A30895E0E0F2E093A170
:1001E00081E090FF80E00895E0E0F2E0808991896D
:1001F0000895AAECB1E092E09C93E82FF0E084919E
:100200001C920895CF93DF9380E20E94F900C0E032
:10021000D2E08C8781E20E94F9008D87DF91CF9137
:1002200008950E9490038FE097E20197F1F700C0D4
:100230000000F9CF88E0E0E6F6E08183E0EAF9E04B
:1002400081E0868380E9878388E1848383E08583F6
:100250000895E0EAF9E0918196FD04C000009181E3
:1002600096FFFCCF8093A0090895E0EAF9E0818130
:1002700080780895E0EAF9E0818188231CF4809178
:10028000A00908958FEF0895809301209093022094
:1002900021E0209303200895E0E4F6E080E28683E5
:1002A000818310920020109203200E94D60184E4E2
:1002B00091E00E949101089580910020813089F49D
:1002C00001C000000E94B5018823D9F70E94960161
:1002D000882311F406C000000E94B5018823D9F7D5
:1002E00008958FEF9FEF089580E2E0E4F6E08583C4
:1002F00081E080930020089580E2E0E4F6E08683C8
:100300001092002008950E947C0187EA91E60197EF
:10031000F1F700C000000E94740108958091002050
:1003200008958093072090930820089580910620D7
:100330008823B9F4E0E4F6E0808582FF14C0E0E0B1
:10034000F8E083E08683878382E0A0E4B6E0169637
:100350008C93169780818160808381E08093062052
:10036000089580E0089580E008959091062081E04E
:10037000911180E00895813029F480E1E0E4F6E015
:1003800086830895882321F480E1E0E4F6E0858304
:100390000895813021F4E0E4F6E085830895882310
:1003A00021F481E0E0E4F6E086830895CF93F894A9
:1003B000E0E4F6E082E08583818381E08183C0E12F
:1003C000C1830E94C90181E00E94BB0110920620F6
:1003D000E0E0F8E0C18380E095E086A397A380E8A1
:1003E00092E080A791A77894CF9108951F920F92E1
:1003F0000FB60F9211242F933F934F935F936F93F8
:100400007F938F939F93AF93BF93EF93FF938091CD
:1004100006208F5F80930620809106208E30A9F4FD
:10042000E0E0F8E086818C7F868387818C7F8783FC
:100430001082109206208091042090910520E09176
:100440000720F0910820099504C082E0E0E4F6E07E
:100450008683FF91EF91BF91AF919F918F917F9193
:100460006F915F914F913F912F910F900FBE0F9021
:100470001F9018951F920F920FB60F9211248F9311
:100480009F93EF93FF9382E0E0E4F6E08583809111
:1004900006208E3060F4808582FD05C080910420A6
:1004A0009091052004C08091042090910520FF9137
:1004B000EF919F918F910F900FBE0F901F90189505
:1004C000CF93C82F80E00E9460048C2F0E945204BA
:1004D000C82F81E00E946004C0930B208C2FCF9125
:1004E00008951F93CF93DF93182FEB0180E00E94B4
:1004F0006004812F80680E945204182F80E00E94BF
:100500005204888381E00E94600410930B20812FA5
:10051000DF91CF911F910895CF93DF930F92CDB7C5
:10052000DEB78AE0BE016F5F7F4F0E947102898152
:100530000F90DF91CF910895CF93DF930F92CDB7B6
:10054000DEB789E0BE016F5F7F4F0E947102898133
:100550000F90DF91CF910895EF92FF920F931F9329
:10056000CF93DF93C82F162FE72E042F80E00E9431
:1005700060048C2F806C0E945204F82E002351F0EE
:10058000C12FDE2D10E080E00E94520489931F5F8E
:100590001017C9F781E00E946004F0920B208F2DA4
:1005A000DF91CF911F910F91FF90EF900895CF931E
:1005B000DF93C82FD62F80E00E9460048C2F0E940A
:1005C0005204C82F8D2F0E94520481E00E946004C3
:1005D000C0930B208C2FDF91CF910895682F8AE074
:1005E0000E94D7020895682F89E00E94D7020895DB
:1005F000EF92FF920F931F93CF93DF93C82F162F85
:10060000E72E042F80E00E9460048C2F80640E94FB
:100610005204F82E002349F0C12FDE2D10E08991FD
:100620000E9452041F5F1017D1F781E00E946004FE
:10063000F0920B208F2DDF91CF911F910F91FF90A2
:10064000EF90089585E30E94600280E00E946004BC
:1006500081E00E94600410920B200895CF93C82F70
:1006600085E30E94600280E00E9460048FE30E94A4
:1006700052048C2F0E94520481E00E94600484E3A3
:100680000E94600280930B2081E0CF910895CF9368
:10069000DF93EC0184E30E94600280E00E9460042A
:1006A0008FEB0E94520480E00E945204888381E014
:1006B0000E94600410920B2081E0DF91CF91089599
:1006C00084E30E94600280E00E94600481E00E9456
:1006D000600410920B2081E0089580E00E94600485
:1006E0008DE30E94600281E00E94600480910B20F3
:1006F000089580E00E94600483E30E94600289EF15
:1007000090E00197F1F700C000008DE30E946002C5
:1007100080910B20807CC9F781E00E9460040895DD
:100720000E94460480E30E9460028FE097E20197F6
:10073000F1F700C0000082E066E00E94D70281E08D
:100740006EE20E94D70280E069E20E94D70283E055
:1007500067E80E94D70285E063ED0E94D70284E03B
:1007600061E90E94D70286E06DE30E94D70288E02B
:1007700065E00E94D70287E064E00E94D70289E02A
:1007800060E00E94D7028AE060E00E94D7028CE01D
:1007900060E00E94D7028BE06EE00E94D7028FE0FB
:1007A00063E30E94D7028EE069EB0E94D7028DE0DE
:1007B00062E20E94D70284E162EE0E94D70283E1E6
:1007C00061E40E94D70282E163E70E94D70281E1DF
:1007D0006BE30E94D70280E16EE10E94D70285E1BF
:1007E00060E00E94D70288E168E10E94D70287E1B9
:1007F00060E30E94D70286E167E00E94D70289E1A8
:100800006DE10E94D7028AE16CE10E94D7028DE17E
:1008100060EB0E94D7028CE160E00E94D7028BE17E
:1008200068E00E94D7028FE16BE60E94D7028EE15A
:1008300067E80E94D70280E268EF0E94D70282E256
:1008400060E10E94D70281E267EB0E94D70286E254
:100850006FE10E94D70285E260E00E94D70284E245
:100860006AE20E94D70283E26AEE0E94D70288E21F
:1008700060E00E94D70287E261E40E94D7020E94F2
:10088000790384E30E94600281E00895E0E6F6E0E7
:1008900080EB818380E18583E0ECF9E080ED80836B
:1008A00013820895E0ECF9E083838281882324F0A9
:1008B000000082818823E4F7E0ECF9E08381089569
:1008C000813029F480E1E0E6F6E08583089580E157
:1008D000E0E6F6E086830895E0E5F0E084E08583D5
:1008E000808180618083818184FD04C000008181DA
:1008F00084FFFCCF88ED84BF84E08093400008959E
:04090000F894FFCF99
:00000001FF
